:100000000C946A000C9404070C94DD060C94920086
:100010000C9492000C9492000C9492000C94920018
:100020000C9492000C9492000C9492000C94920008
:100030000C9492000C9492000C9492000C949200F8
:100040000C9468080C9492000C9451070C942B07A4
:100050000C9492000C9492000C9492000C949200D8
:100060000C9492000C949200563A204E6F762032F7
:100070003420323032302031333A30343A343300A5
:100080000000000800020100000304070000000057
:100090000000000000000000250028002B000000E8
:1000A0000000240027002A000404040404040404BB
:1000B0000202020202020303030303030102040813
:1000C00010204080010204081020010204081020C2
:1000D0004A0BB20811241FBECFEFD8E0DEBFCDBF60
:1000E00022E0A4E9B1E001C01D92A23AB207E1F713
:1000F00011E0A0E0B1E0E4E2FCE102C005900D9265
:10010000A439B107D9F710E0C9E6D0E004C02197BF
:10011000FE010E94FA0BC836D107C9F70E94BB083E
:100120000C94050E0C94000080E090E0892B29F0DF
:100130000E94620681110C940000089581E0809372
:100140009C0108950895CF93DF93EC0161E08A81CB
:100150000E940F088C858CBD8D858DBDDF91CF9160
:100160000895FC018CB584878DB585879685878534
:100170009CBD8DBD60E082810C940F084F925F9210
:100180006F927F929F92AF92BF92CF92DF92EF9247
:10019000FF920F931F93CF93DF9300D000D000D036
:1001A000CDB7DEB79E838D836B015A01122FF02EDF
:1001B000912C2E2D30E040E050E029833A834B8390
:1001C0005C83AD81BE81ED91FC9111970280F3813A
:1001D000E02D01E0212FA501B601CD0109950E9476
:1001E0005C082B013C010E945C08DC01CB018419F6
:1001F0009509A609B70929813A814B815C8182174B
:100200009307A407B507D8F4AD81BE81ED91FC91A9
:1002100011970680F781E02DCD010995882319F308
:100220002091970130919801C216D30619F0C1149C
:10023000D104C9F6909196019923A9F205C093942F
:10024000F91408F0BECF80E026960FB6F894DEBF12
:100250000FBECDBFDF91CF911F910F91FF90EF9017
:10026000DF90CF90BF90AF909F907F906F905F9006
:100270004F900895FC01848DDF01A80FB11DA35A92
:10028000BF4F2C91848D90E001968F739927848FB6
:10029000A689B7892C93A089B1898C9183708064D9
:1002A0008C93938D848D981306C00288F389E02D7A
:1002B00080818F7D808308958EBD00000DB407FE80
:1002C000FDCF8EB508950F931F93CF93DF93EC016D
:1002D000062F142FE881F981008CF18DE02D09950E
:1002E000802F80680E945C01812F0E945C01E88160
:1002F000F981028CF38DE02DCE01DF91CF911F911A
:100300000F9109941F93CF93DF93EC01162F611186
:1003100002C045E501C04DE56AE5CE010E946301DA
:10032000111102C040E701C04CE76CE5CE01DF913E
:10033000CF911F910C9463011F93CF93DF93EC0136
:10034000162FE881F981008CF18DE02D0995812F20
:100350008F770E945C0180E00E945C01182FE88189
:10036000F981028CF38DE02DCE010995812FDF916B
:10037000CF911F910895CF93DF93EC0169876111AD
:1003800002C04AE101C04FE063E1CE010E94630177
:100390008985882341F061E1CE010E949C018F7123
:1003A000482F406602C04885406861E1CE01DF9178
:1003B000CF910C946301CF93DF9320917E02233081
:1003C000C9F420919B01211115C0EC0164E20E9447
:1003D0009C0190E09195819591098C349F4F54F444
:1003E000E881F9810488F589E02D61E0CE01099565
:1003F00081E001C080E0DF91CF910895CF93DF933A
:10040000EC011092DC011092980110929701109269
:100410009A011092990110929B01109296011092EC
:1004200095011092940168E20E949C0182FF0AC02B
:100430006DE3CE010E949C01482F44606DE3CE0124
:100440000E94630140E465E2CE010E946301E881FD
:10045000F9810488F589E02D63E0CE01DF91CF9129
:1004600009944F925F926F927F928F929F92AF9278
:10047000BF92CF92DF92EF920F931F93CF93DF93B0
:10048000EC014B01142FC0909701D0909801A090DF
:100490009401B09095016DE30E949C01482F446047
:1004A0006DE3CE010E9463010E945C082B013C01B8
:1004B000E881F9810190F081E02DCE01099581114B
:1004C00015C00E945C08DC01CB0184199509A609BE
:1004D000B709883E9340A105B10540F4E881F98150
:1004E0000680F781E02DCE010995E2CFD0929801E8
:1004F000C0929701E881F9810088F189E02DEE240E
:10050000E39400E0212FA401B601CE010995B09239
:100510009501A0929401DF91CF911F910F91EF90DF
:10052000DF90CF90BF90AF909F908F907F906F9013
:100530005F904F9008954F925F926F927F92AF922B
:10054000BF92CF92DF92EF920F931F93CF93DF93DF
:10055000EC016B015A01122F6DE30E949C01482FA0
:1005600044606DE3CE010E9463010E945C082B0190
:100570003C01E881F9810190F081E02DCE010995DF
:10058000811115C00E945C08DC01CB01841995091A
:10059000A609B709883E9340A105B10540F4E8815A
:1005A000F9810680F781E02DCE010995E2CFE8813F
:1005B000F9810088F189E02DE12C212FA501B601F8
:1005C000CE010995DF91CF911F910F91EF90DF90B0
:1005D000CF90BF90AF907F906F905F904F900895B5
:1005E000CF93DF93EC01603208F06FE16887898573
:1005F000882311F06695688761E1CE010E949C0115
:10060000807E9885482F492B61E1CE01DF91CF9103
:100610000C9463011F93CF93DF9320917E022617E2
:1006200009F45DC0162FEC016230E9F168F466232D
:1006300009F440C0613009F052C061E00E949C01A1
:10064000837E482F44603BC06330B9F0643009F0CA
:1006500046C061E00E949C01837E482F4C6061E0AF
:10066000CE010E9463018985882369F1E881F981BF
:100670000688F789E02D61E013C061E00E949C01CB
:10068000837E482F406161E0CE010E94630189852D
:100690008823C9F0E881F9810688F789E02D60E0B8
:1006A000CE01099510C061E00E949C01837E482F15
:1006B000486005C061E00E949C01482F437E61E0D4
:1006C000CE010E94630180917E02811106C067E223
:1006D000CE010E949C0187FFF6CF10937E02DF912E
:1006E000CF911F910895FF920F931F93CF93DF93A4
:1006F000EC0180919C01882371F110929C01809102
:100700007E028330D1F468E2CE010E949C0182FD1A
:100710003DC013C0F0E0E256FE4F1082E881F9813F
:10072000028CF38DE02DCE010995E881F9810488D2
:10073000F589E02D63E0CE01099564E2CE010E94C7
:100740009C0190E09195819591099595879590935D
:1007500095018093940180917E02833071F48091A1
:100760009B01882389F0E881F9810488F589E02DCF
:1007700061E0CE01099581E07FC0E881F9810288BE
:10078000F389E02DCE01099580E076C0E881F981FA
:100790000488F589E02D61E0CE010995E881F981B1
:1007A000008CF18DE02DCE01099580E00E945C0166
:1007B00080E00E945C01182F833408F012E410934B
:1007C0009B0180E00E945C01F82E80E00E945C01A9
:1007D000082F80E00E945C01282F2C7090E4299F54
:1007E000900111242F2930939A0120939901982F79
:1007F0009370402F50E0592B5093980140939701EC
:100800009F81911107C04D815E812417350711F03A
:10081000232B11F4133088F410929B01E881F981A5
:10082000028CF38DE02DCE010995E881F9810288D3
:10083000F389E02DCE0109958ECF13501093DC0182
:10084000982F907890939601E881F9810684F78536
:10085000E02D682FCE01099510E0E091DC011E1714
:1008600008F058CF80E00E945C01E12FF0E0E256F2
:10087000FE4F80831F5FF1CFDF91CF911F910F91CA
:10088000FF900895AF92BF92CF92DF92EF92FF92C6
:100890000F931F93CF93DF93EC016B01B42EA52E22
:1008A000F22E102FE881F9810488F589E02D61E0AE
:1008B000099567E2CE010E949C0187FFFACF0F2DB8
:1008C0000E3308F00DE3E11004C0112321F010E411
:1008D00003C010E801C010E08FEFC816D10451F03A
:1008E00048F0C6018827937026E0969587952A954B
:1008F000E1F7182B8D819E818F3F910521F018F033
:1009000088279370192BE881F981008CF18DE02DF7
:10091000CE01099580E80E945C0183E0800F0E946F
:100920005C018C2D0E945C018D810E945C01812FF5
:100930000E945C011B2DEB2CFA2C8E2D811B801745
:1009400030F4F70181917F010E945C01F6CFE881CC
:10095000F981028CF38DE02DCE010995E881F981B2
:100960000488F589E02D64E0CE01099568E2CE01A6
:100970000E949C0183FFFACFE881F9810488F58900
:10098000E02D61E0CE01DF91CF911F910F91FF909B
:10099000EF90DF90CF90BF90AF900994CF92DF920D
:1009A000EF92FF920F931F93CF93DF9380919D015E
:1009B000882309F4CBC0E0908F02F0909002E114FC
:1009C000F10409F441C0C0919302D09194022097A0
:1009D000D9F1870168018FEFC81AD80AF801808120
:1009E000082E000C990B0E94950B892B11F08601A3
:1009F000F1CF2197CE0DDF1D8881082E000C990BB9
:100A00000E94950B892B29F0C017D10710F0219770
:100A1000F3CFAE014F5F5F4F401B510B50939402D9
:100A200040939302E016F10620F4B801C7010E943A
:100A3000EC0DE0918F02F0919002809193029091E1
:100A40009402E80FF91F10828CE391E00E94B00736
:100A5000882339F080E491E00E94E20781E090E091
:100A60000CC08DE491E00E94B007882359F081E525
:100A700091E00E94E20782E090E09093DE01809393
:100A8000DD0117C08DE591E00E94B007C82F8823D3
:100A900039F18091DD019091DE01019709F500E0C7
:100AA00024E04DE551E062E070E08FE792E00E94C3
:100AB0009B0280918F0290919002009711F00E940A
:100AC000980C1092900210928F0210929402109241
:100AD0009302109292021092910210929D0136C0E0
:100AE00085E691E00E94B00781110DC0CC23C9F0CA
:100AF0008091DD019091DE01029799F48DE591E0FE
:100B00000E94E207D6CFC8E6D0E0FE0164916623DA
:100B1000C1F081EE91E00E946E062196892BA9F723
:100B200010C08DE691E00E94D00740919302509151
:100B3000940260918F027091900281EE91E00E9488
:100B4000F70582E691E00E94D007B3CFDF91CF9105
:100B50001F910F91FF90EF90DF90CF900895FF923B
:100B60000F931F93CF93DF9300D0CDB7DEB7FF2451
:100B7000F39481EE91E00E9456061816190674F55A
:100B800080919D0181112AC081EE91E00E9434067E
:100B90008A3009F189831A8200919302109194029C
:100BA0000F5F1F4FC8010E948307882311F3209114
:100BB0008F02309190028091930290919402BE0135
:100BC0006F5F7F4F820F931F0E94FE0D1093940260
:100BD00000939302CECFF0929D01CBCF0F900F9058
:100BE000DF91CF911F910F91FF9008950895CF92BB
:100BF000DF92EF92FF920F931F93CF93DF936C01DD
:100C00007A018B01C0E0D0E0CE15DF0581F0D8017C
:100C10006D918D01D601ED91FC910190F081E02D57
:100C2000C6010995892B11F02196EECF7E01C701EF
:100C3000DF91CF911F910F91FF90EF90DF90CF90B8
:100C40000895089580E090E00895FC01538D448D4F
:100C5000252F30E0842F90E0821B930B541710F067
:100C6000CF96089501970895FC01918D828D981774
:100C700061F0828DDF01A80FB11D5D968C91928D80
:100C80009F5F9F73928F90E008958FEF9FEF08957D
:100C9000FC01918D828D981731F0828DE80FF11D46
:100CA000858D90E008958FEF9FEF0895FC01918D61
:100CB000228D892F90E0805C9F4F821B91098F735A
:100CC0009927089581EE91E00E94560621E0892B34
:100CD00009F420E0822F08950E94E70DEF92FF9221
:100CE0000F931F93CF93DF93EC0181E0888F9B8D4F
:100CF0008C8D981305C0E889F989808185FD26C00F
:100D0000F62E0B8D10E00F5F1F4F0F731127E02E93
:100D10008C8DE8120CC00FB607FCFACFE889F98970
:100D2000808185FFF5CFCE010E943A01F1CF8B8DF6
:100D3000FE01E80FF11DE35AFF4FF0829FB7F894D0
:100D40000B8FEA89FB89808180620AC09FB7F89483
:100D5000EE89FF896083E889F989808183708064E6
:100D600080839FBF81E090E0DF91CF911F910F9131
:100D7000FF90EF900895CF93DF93EC01888D882347
:100D8000C9F0EA89FB89808185FD05C0A889B989F8
:100D90008C9186FD0FC00FB607FCF5CF808185FFD3
:100DA000F2CFA889B9898C9185FFEDCFCE010E9441
:100DB0003A01E7CFDF91CF9108951F920F920FB6BE
:100DC0000F9211242F933F934F935F936F937F93D1
:100DD0008F939F93AF93BF93EF93FF93E0910201A3
:100DE000F09103010995FF91EF91BF91AF919F9110
:100DF0008F917F916F915F914F913F912F910F90C4
:100E00000FBE0F901F9018951F920F920FB60F9262
:100E100011242F933F934F935F936F937F938F93FF
:100E20009F93AF93BF93EF93FF93E0910001F091F5
:100E300001010995FF91EF91BF91AF919F918F9122
:100E40007F916F915F914F913F912F910F900FBEC6
:100E50000F901F9018951F920F920FB60F921124AA
:100E60002F933F934F935F936F937F938F939F93B2
:100E7000AF93BF93EF93FF9381EE91E00E943A010D
:100E8000FF91EF91BF91AF919F918F917F916F9162
:100E90005F914F913F912F910F900FBE0F901F9038
:100EA00018951F920F920FB60F9211242F938F93C4
:100EB0009F93EF93FF93E091F101F091F201808114
:100EC000E091F701F091F80182FD12C090818091CC
:100ED000FA018F5F8F732091FB01821751F0E0912F
:100EE000FA01F0E0EF51FE4F958F8093FA0101C0B7
:100EF0008081FF91EF919F918F912F910F900FBE65
:100F00000F901F901895CF93DF93EC0180918F0283
:100F100090919002009739F02091910230919202C5
:100F20002C173D07B8F4BE016F5F7F4F0E94210D63
:100F3000009791F09093900280938F02D093920249
:100F4000C09391022091930230919402232B11F4CB
:100F5000FC01108281E001C080E0DF91CF91089513
:100F6000FC018091930290919402892B21F421E05D
:100F7000309749F413C080918F029091900230977E
:100F800031F421E0FC018081882341F006C0BF01DB
:100F90000E94F50D21E0892B09F020E0822F0895B1
:100FA000009769F0FC0101900020E9F73197AF014B
:100FB000481B590BBC0181EE91E00C94F70580E0D1
:100FC00090E00895CF93DF930E94D007EC0182E672
:100FD00091E00E94D0078C0F9D1FDF91CF91089563
:100FE00090E0FC01E454FF4F2491FC01E855FF4FD1
:100FF0008491882399F090E0880F991FFC01E256B4
:10100000FF4FA591B491FC01EC56FF4F859194914F
:101010008FB7F894EC91E22BEC938FBF089590E09A
:10102000FC01E058FF4F2491FC01E454FF4F349140
:10103000FC01E855FF4FE491EE2309F43CC0222364
:1010400039F1233091F038F42130A9F0223001F544
:1010500084B58F7D12C0273091F02830A1F0243064
:10106000B9F4809180008F7D03C0809180008F77DC
:10107000809380000DC084B58F7784BD09C08091B6
:10108000B0008F7703C08091B0008F7D8093B00057
:10109000F0E0EE0FFF1FEC56FF4FA591B4919FB704
:1010A000F894611104C08C913095382302C0EC9102
:1010B0003E2B3C939FBF08952FB7F89460919A02FE
:1010C00070919B0280919C0290919D022FBF089588
:1010D0001F920F920FB60F9211242F933F938F936D
:1010E0009F93AF93BF9380919A0290919B02A0919E
:1010F0009C02B0919D023091990223E0230F2D377D
:1011000020F40196A11DB11D05C026E8230F02960B
:10111000A11DB11D2093990280939A0290939B0286
:10112000A0939C02B0939D028091950290919602AB
:10113000A0919702B09198020196A11DB11D8093D4
:10114000950290939602A0939702B0939802BF9154
:10115000AF919F918F913F912F910F900FBE0F9064
:101160001F90189580918F0290919002009711F036
:101170000C94980C0895CF93DF93CDB7DEB7AE975C
:101180000FB6F894DEBF0FBECDBF789484B58260F1
:1011900084BD84B5816084BD85B5826085BD85B51B
:1011A000816085BD80916E00816080936E00109299
:1011B0008100809181008260809381008091810014
:1011C00081608093810080918000816080938000A5
:1011D0008091B10084608093B1008091B000816003
:1011E0008093B00080917A00846080937A0080912F
:1011F0007A00826080937A0080917A008160809387
:101200007A0080917A00806880937A001092C10001
:1012100084E190E00E948307E091F101F091F201F6
:1012200082E08083E091ED01F091EE011082E09187
:10123000EF01F091F00180E180831092F901E091DB
:10124000F501F091F60186E08083E091F301F091E1
:10125000F401808180618083E091F301F091F401D9
:10126000808188608083E091F301F091F4018081B6
:1012700080688083E091F301F091F40180818F7D9B
:1012800080833AE0832E912CA12CB12CE090DD01DB
:10129000F090DE01E114F10409F056C00E94AF05A0
:1012A0000E94CE048091DD019091DE01181619068E
:1012B0006CF786E891E00E94D007C090DD01D090E5
:1012C000DE010D2C000CEE08FF08F7FE20C06DE2D9
:1012D00081EE91E00E946E0622273327A9012C1986
:1012E0003D094E095F0919A28E010F5D1F4FCA010A
:1012F000B901A50194010E94D80B605DF8016293C9
:101300008F01211531054105510589F715C0A70148
:10131000960119A28E010F5D1F4FCA01B901A501E7
:1013200094010E94D80B605DF80162938F01211532
:1013300031054105510589F7C8010E94D00782E6B1
:1013400091E00E94D007A2CF80918202823021F0EA
:10135000833021F08FEF03C080E001C081E08093F3
:1013600083028EE28E010F5F1F4FF801982F1192BA
:101370009A95E9F791E0998324E02A8332E03B8350
:1013800093E09D833E832F8330E4388725E02987CF
:101390009A8796E09B8793E39C8727E02D8798E0C8
:1013A0009F8799E0998B99E19B8B92E49C8B45E216
:1013B0004D8B3E8B36E23F8B288F28E2298F20E130
:1013C0002A8F29E22B8F2CED2C8F8D8F88E88E8F22
:1013D0008FE28F8F8DE288A380E389A327E32BA37D
:1013E00020E92CA328E32DA39EA39CE39FA39FE8C1
:1013F00098A79DE399A792E19AA79FE69BA78CA740
:101400008FEF8DA784EE8E8780EC888B84E68AA38D
:1014100061E0809181020E940F08809181020E9408
:10142000F0078091890290918A02892B31F480EE35
:1014300091E090938A0280938902DFB6F8948091BC
:10144000DF01811124C0E2EBF0E08491E6ECF0E0F2
:101450009491E82FF0E0EE0FFF1FE256FF4FA591A9
:10146000B491EC91E92321F461E08AE00E940F0835
:101470008AE00E94F0078CB580618CBD8CB58064D9
:101480008CBD8DE00E94F0078BE00E94F0078091F8
:10149000DF018F5F8093DF01DFBE80E580938D02E7
:1014A00081E080938E020E945C084B015C014AEA55
:1014B0006FE28FE792E00E9463016FE28FE792E0B4
:1014C0000E949C018A3A61F00E945C08DC01CB0119
:1014D00088199909AA09BB09C297A105B10538F372
:1014E0000E945C084B015C0145E56FE28FE792E0EA
:1014F0000E9463016FE28FE792E00E949C018535B4
:1015000061F00E945C08DC01CB0188199909AA09E5
:10151000BB09C297A105B10538F3D12CF801ED0D37
:10152000F11DED0DF11D60816F3F39F041818FE7B5
:1015300092E00E946301D394F1CF61E08FE792E0E3
:101540000E940A036DE38FE792E00E949C01482FFE
:101550004E7F6DE38FE792E00E9463016091880205
:101560008FE792E00E94BB0161E08FE792E00E946A
:101570000A030E945C084B015C0167E28FE792E07E
:101580000E949C0187FD0CC00E945C08DC01CB011D
:1015900088199909AA09BB09C297A105B10568F381
:1015A0000E945C08DC01CB0188199909AA09BB09D2
:1015B000C297A105B10508F5809183028230C8F475
:1015C000E82FF0E0EE0FFF1FE050FF4F2EE930E074
:1015D00031832083813039F080916900836080936A
:1015E0006900E89A06C0809169008C608093690068
:1015F000E99AF0928502E092840261E08FE792E03E
:101600000E94BB01EE24E3948091DD019091DE0104
:101610008130910519F40E94AF0537C00297B9F5E2
:101620000E94AF058FE792E00E947303882369F15F
:10163000F12C8091DC01F81630F5EF2DF0E0E25648
:10164000FE4F808189831A82C0909302D0909402C9
:10165000EFEFCE1ADE0AC6010E948307882389F0C5
:1016600020918F0230919002809193029091940288
:10167000B801820F931F0E94FE0DD0929402C09277
:101680009302F394D6CFE0929D010E94CE040E9473
:101690009400BACFE1EEF1E01382128288EE93E07B
:1016A000A0E0B0E084839583A683B7838EE091E0C9
:1016B0009183808385EC90E09587848784EC90E02B
:1016C0009787868780EC90E0918B808B81EC90E00F
:1016D000938B828B82EC90E0958B848B86EC90E0F0
:1016E000978B868B118E128E138E148EEFE8F2E09C
:1016F000118210821382128215821482EFE7F2E0C7
:1017000080E291E09183808380E5868717868AE076
:10171000828382E0838381E080937E0217828FE15F
:101720008087118613861286089591110C949E0B62
:10173000803219F089508550C8F708959927882775
:1017400008952F923F924F925F926F927F928F9265
:101750009F92AF92BF92CF92DF92EF92FF920F9340
:101760001F93CF93DF93CDB7DEB7CA1BDB0B0FB64A
:10177000F894DEBF0FBECDBF09942A883988488807
:101780005F846E847D848C849B84AA84B984C8849D
:10179000DF80EE80FD800C811B81AA81B981CE0F94
:1017A000D11D0FB6F894DEBF0FBECDBFED01089579
:1017B000A1E21A2EAA1BBB1BFD010DC0AA1FBB1F55
:1017C000EE1FFF1FA217B307E407F50720F0A21BC7
:1017D000B30BE40BF50B661F771F881F991F1A9434
:1017E00069F760957095809590959B01AC01BD015E
:1017F000CF010895EE0FFF1F0590F491E02D09949D
:101800000F931F93CF93DF938230910510F482E002
:1018100090E0E091A002F091A10220E030E0A0E091
:10182000B0E0309719F1408151810281138148174E
:101830005907C8F08417950769F4109731F012968C
:101840000C93129713961C9327C00093A002109339
:10185000A10222C02115310519F04217530718F4CF
:101860009A01BD01EF01DF01F801DBCF2115310540
:10187000F9F0281B390B2430310580F48A819B81D3
:101880006115710521F0FB019383828304C090935D
:10189000A1028093A002FE01329644C0FE01E20F35
:1018A000F31F8193919322503109398328833AC0E1
:1018B00020919E0230919F02232B41F4209106013A
:1018C0003091070130939F0220939E0220910401E2
:1018D000309105012115310541F42DB73EB74091F6
:1018E000080150910901241B350BE0919E02F091F3
:1018F0009F02E217F307A0F42E1B3F0B28173907AE
:1019000078F0AC014E5F5F4F2417350748F04E0F5B
:101910005F1F50939F0240939E028193919302C058
:10192000E0E0F0E0CF01DF91CF911F910F9108959A
:10193000CF93DF93009709F481C0FC0132971382A3
:101940001282A091A002B091A102109781F420818F
:101950003181820F931F20919E0230919F022817A0
:10196000390751F5F0939F02E0939E0267C0ED01A5
:1019700020E030E0CE17DF0740F44A815B819E0112
:1019800041155105F1F0EA01F5CFD383C2834081BF
:101990005181840F951FC817D90759F488819981FF
:1019A000840F951F0296918380838A819B81938304
:1019B00082832115310529F4F093A102E093A0025E
:1019C0003DC0E901FB83EA8349915991C40FD51FBA
:1019D000EC17FD0761F480819181840F951F0296B9
:1019E000E90199838883828193819B838A83E0E0E4
:1019F000F0E012968D919C911397009719F0FD01DC
:101A0000DC01F7CF8D919C9111979D012E5F3F4F87
:101A1000820F931F20919E0230919F022817390751
:101A200069F4309729F41092A1021092A00202C02A
:101A300013821282B0939F02A0939E02DF91CF91F6
:101A40000895A0E0B0E0E7E2FDE00C94A50BEC0106
:101A5000009721F4CB010E94000CB4C0FC01E60FFA
:101A6000F71F9C0122503109E217F30708F4A8C0C0
:101A7000D9010D911C91119706171707B0F0053089
:101A8000110508F49BC0C80104978617970708F44E
:101A900095C002501109061B170B019311936D930A
:101AA0007C93CF010E94980C89C05B01A01AB10AF7
:101AB0004C01800E911EA091A002B091A102612C58
:101AC000712CE12CF12C109709F446C08D919C915A
:101AD0001197A815B905B1F56C0142E0C40ED11CEF
:101AE000CA14DB0478F14C018A189B08640142E0B7
:101AF000C40ED11C1296BC9012971396AC91B5E00F
:101B0000CB16D10440F0B282A38391828082D901A6
:101B10006D937C9309C00E5F1F4F800F911FF901D9
:101B200091838083EB2DFA2FE114F10431F0D7017A
:101B30001396FC93EE93129741C0F093A102E093A9
:101B4000A0023CC06816790608F43C017D0112969B
:101B50000D90BC91A02DB7CF80919E0290919F02D5
:101B600088169906E1F466167706C8F48091040198
:101B700090910501009741F48DB79EB740910801FF
:101B800050910901841B950BE817F907C8F4F093ED
:101B90009F02E0939E02F901718360830FC0CB0125
:101BA0000E94000C7C01009759F0A801BE010E9420
:101BB000EC0DCE010E94980CC70104C0CE0102C0FA
:101BC00080E090E0CDB7DEB7EEE00C94C10B81E091
:101BD00090E0F8940C94050EFB01DC0102C001902A
:101BE0000D9241505040D8F70895FB01DC018D91D2
:101BF000019080190110D9F3990B0895FB01DC01C4
:101C000001900D920020E1F7089510E0C9E6D0E0C0
:101C100004C0FE010E94FA0B2196CA36D107C9F70B
:041C2000F894FFCF66
:101C2400F605F6050000A2022000000000006E0682
:101C3400F7052506BB0656063406480600000000D4
:101C4400DB019B02BE0073033102BB01F002A20060
:101C54004204FE010A038201B100A3004D53540063
:101C64004D6173746572204D6F64652000534C564A
:101C740000536C617665204D6F6465200053594EA6
:101C840043000D0A0056455253494F4E00436F6DB1
:101C94006D616E64206E6F7420756E64657273740A
:101CA4006F6F643A20004D6F64652073657420740F
:041CB4006F3A200063
:00000001FF
